:020000040800F2
:1000000000040020130200085D0200085F020008DF
:1000100063020008670200086B020008000000008D
:100020000000000000000000000000006F02000857
:100030007102000800000000730200087502000849
:1000400033020008330200083302000833020008BC
:1000500033020008330200083302000833020008AC
:10006000330200083302000833020008330200089C
:10007000330200083302000833020008330200088C
:10008000330200083302000833020008330200087C
:10009000330200083302000833020008330200086C
:1000A000330200083302000833020008330200085C
:1000B000330200083302000833020008330200084C
:1000C000330200083302000833020008330200083C
:1000D000330200087B0E00083302000833020008D8
:1000E000330200083302000833020008330200081C
:1000F000330200083302000833020008330200080C
:1001000033020008330200083302000833020008FB
:1001100033020008330200083302000833020008EB
:1001200033020008330200083302000833020008DB
:1001300000F002F800F05CF80AA090E8000C82449D
:100140008344AAF10107DA4501D100F051F8AFF27A
:10015000090EBAE80F0013F0010F18BFFB1A43F0A5
:1001600001031847B82F0000D82F00000A444FF0B1
:10017000000C10F8013B13F0070408BF10F8014B06
:100180001D1108BF10F8015B641E05D010F8016B4B
:10019000641E01F8016BF9D113F0080F1EBF10F8AF
:1001A000014BAD1C0C1B09D16D1E58BF01F801CBD2
:1001B000FAD505E014F8016B01F8016B6D1EF9D555
:1001C0009142D6D37047000000230024002500266A
:1001D000103A28BF78C1FBD8520728BF30C148BFAA
:1001E0000B6070471FB502F092FF1FBD10B510BD28
:1001F00002F053FF1146FFF7F5FF00F094F802F00C
:1002000071FF03B4FFF7F2FF03BC02F079FF0000B7
:1002100070470B4880470B4981F308880A4800471C
:10022000FEE7FEE7FEE7FEE7FEE7FEE7FEE7FEE7A6
:10023000FEE7FEE705480649064A074B70470000FF
:1002400011020008C81A002031010008C81400205B
:10025000C81A0020C8160020C8160020704700BF2A
:10026000FEE700BFFEE700BFFEE700BFFEE7704706
:10027000704770477047000010B5012144F27C00C0
:1002800002F0D3FB01214FF0021002F0DBFB10BDA6
:1002900010B500F095FC01F0EFFA10BD704710B5F5
:1002A00002F05CFA4FF4803002F078FA02F0B5FA0E
:1002B0000446012C23D1102001F0D4FD022001F0CE
:1002C000BDFD002002F0EBFA002002F0FAFAA002D5
:1002D00002F0EEFA2105081102F0C4FA012002F042
:1002E000CDFA00BF392002F07CFA0028FAD00220B3
:1002F00002F0C7FA00BF02F0CDFA0028FBD010BD13
:100300000EE0002108E0002201E0531C9AB2B2F591
:100310007A7FFADB4B1C99B20A29F4DB431E98B2B0
:100320000028EEDC704786B0142414220AA101A82C
:1003300002F035FEFFF7B3FFFFF79EFFFFF7A8FFC0
:10034000FFF7ACFF012001F080FA03E0214601A88D
:1003500001F0C8FAFAE700004E0A6D77827E5B89E9
:1003600075355B5067099650516C53F808B54FF4DA
:100370003040ADF8000010208DF8030003208DF808
:1003800002006946E14802F09DF84FF48040ADF864
:10039000000048208DF8030003208DF80200694614
:1003A000DA4802F08FF808BD70B504464FF40050EB
:1003B000D74908604FF0000523E004F08000802852
:1003C00003D10002D349086003E04FF40040D04954
:1003D00008606006040E4FF40050CE4908604FF4E8
:1003E0008041CA4802F0FFF810B144F0010401E076
:1003F00024F001044FF40050C549086005F10100E4
:10040000C5B2082DD9DB204670BD0146C24A002086
:10041000202905DB7E2903DCA1F1200302EB031078
:1004200070470146BD4A0020202905DB7E2903DCF8
:10043000A1F1200302EBC300704730B50146B84A72
:1004400000200023B1F5505F08DB44F6B554A1420B
:1004500004DCA1F5505402EB441060E0B1F59C4F70
:100460000BDB49F6A574A14207DCA1F59C4441F6DB
:10047000B6152C4402EB441051E0B1F57F4F03DB7D
:100480004FF65E74A14203DD202928DB7E2926DC9D
:10049000B1F57F4F01D0202902D1A24C10193EE0C6
:1004A000B1F57F4F0DDD4FF65E74A14209DCA1F579
:1004B0007F4446F65C352C4404F2DB3402EB4410F6
:1004C0002DE020292BDD7E2929DCA1F1200446F630
:1004D00066352C4404F2DB3402EB44101FE0A12902
:1004E00003DB43F2D534A14207DD4EF26C74A14226
:1004F00015DB4FF6E574A14211DC002307E08A4CBE
:1005000054F823408C4200D104E05C1CA3B2B3F544
:10051000886FF4DB00BF854C04EB4314A01830BD9A
:1005200030B50146002200200023B1F5505F0ADB00
:1005300044F6B554A14206DCA1F5505404EB440442
:1005400002EBC40068E0B1F59C4F0DDB49F6A574E1
:10055000A14209DCA1F59C4441F6B6152C4404EBFC
:10056000440402EBC40057E0B1F57F4F03DB4FF6C4
:100570005E74A14203DD20292CDB7E292ADCB1F543
:100580007F4F01D0202902D1694C101944E0B1F508
:100590007F4F0FDD4FF65E74A1420BDCA1F57F4467
:1005A00046F65C352C4404F2DB3404EB440402EBE5
:1005B000C40031E020292FDD7E292DDCA1F12004AB
:1005C00046F666352C4404F2DB3404EB440402EBBB
:1005D000C40021E0A12903DB43F2D534A14207DDA9
:1005E0004EF26C74A14217DB4FF6E574A14213DCA6
:1005F000002307E04C4C54F823408C4200D104E027
:100600005C1CA3B2B3F5886FF4DB00BF03EB4304BB
:10061000484D05EBC404A01830BD2DE9F0478146D4
:100620000F4690464046B8F5E16F18D0A0F500603F
:1006300016381AD0A0F50060FC3804D0A0F5806010
:10064000043818D105E00C254846FFF769FF044639
:1006500012E020254846FFF7F0FE04460CE008258E
:100660004846FFF7DEFE044606E010254846FFF741
:10067000CCFE044600E000BF00BF4FF48050244988
:1006800008604FF00300FFF78FFEC4F30740FFF749
:100690008BFEC4F30720FFF787FEE0B2FFF784FE6E
:1006A000002605E0FF20FFF77FFEB855701CC6B29C
:1006B000AE42F7DB4FF4805016490860BDE8F08782
:1006C00030B591B0002446F22F6520221AA109A866
:1006D00002F065FC202101A802F0B5FC41F216529F
:1006E00001A92846FFF799FF00BF0AE009A8005DAD
:1006F00001A9095D884202D0002011B030BD601C04
:10070000C4B2202CF2DB0120F7E70000000C01400E
:10071000140C0140100C0140D8831800D88E18002A
:10072000B8760A00C0AE0D0000000020806B0D00FE
:1007300010430A00A0100A001FF0101010101FF044
:10074000101010101FF00000FFFE0100110011F842
:1007500011002900450083FE08B54FF48070ADF804
:10076000000010208DF8030003208DF80200694678
:10077000E64801F0A7FE4FF42040ADF8000010203D
:100780008DF8030003208DF802006946E04801F06F
:1007900099FE4FF48040ADF8000048208DF803002A
:1007A00003208DF802006946D94801F08BFE08BD90
:1007B00070B505464FF40051D54801F030FF0024D4
:1007C00001E0601CC4B2C82CFBDB002632E005F05F
:1007D0008000802804D10102CD4801F01EFF04E012
:1007E0004FF40041CA4801F01AFF6806050E4FF4A5
:1007F0000051C74801F011FF002401E0601CC4B2A1
:10080000C82CFBDB4FF48041C14801F0ECFE10B175
:1008100045F0010501E025F001054FF40051BC4809
:1008200001F0FDFE002401E0601CC4B2C82CFBDB1B
:10083000701CC6B2082ECADB284670BD2DE9F041F7
:1008400004460E46174600254FF48071AF4801F06C
:10085000E6FE0620FFF7ACFF4FF48071AB4801F0D5
:10086000DCFE4FF48071A94801F0D9FE0320FFF7A8
:100870009FFFC4F30740FFF79BFFC4F30720FFF778
:1008800097FFE0B2FFF794FF00BF04E0FF20FFF7FF
:100890008FFF78556D1CB542F8D34FF480719B489B
:1008A00001F0BBFEBDE8F0812DE9F04706460F469A
:1008B00090464FF0000AD146002400254FF4807185
:1008C000924801F0AAFE35034FF480718F4801F081
:1008D000A6FE0520FFF76CFFFF20FFF769FF8246A9
:1008E0004FF48071894801F098FE4FF48071874879
:1008F00001F095FE5020FFF75BFF4FF480718348B5
:1009000001F08BFE4FF48071804801F088FE0120D9
:10091000FFF74EFF0020FFF74BFF4FF480717B483D
:1009200001F07BFE4FF48071784801F078FE0620DC
:10093000FFF73EFF4FF48071744801F06EFE4FF4F4
:100940008071724801F06BFE2020FFF731FF280C08
:10095000FFF72EFFC5F30720FFF72AFFE8B2FFF7E6
:1009600027FF4FF48071694801F057FE00BF4FF434
:100970008071664801F053FE0520FFF719FFFF2044
:10098000FFF716FF81464FF48071604801F045FE85
:10099000B9F1030FEBD0002441E04FF480715B48C4
:1009A00001F03DFE0620FFF703FF4FF4807157482A
:1009B00001F033FE4FF48071544801F030FE022004
:1009C000FFF7F6FE2919C1F30740FFF7F1FE2919D9
:1009D000C1F30720FFF7ECFE2919C8B2FFF7E8FEC4
:1009E00018F80400FFF7E4FE4FF48071474801F067
:1009F00014FE00BF4FF48071444801F010FE052042
:100A0000FFF7D6FEFF20FFF7D3FE81464FF480713B
:100A10003E4801F002FEB9F1030FEBD0641CBC426A
:100A2000BBD34FF48071394801F0F9FD0420FFF782
:100A3000BFFEFF20FFF7BCFE82464FF480713348B3
:100A400001F0EBFD4FF48071304801F0E8FD062025
:100A5000FFF7AEFE4FF480712C4801F0DEFD4FF43D
:100A600080712A4801F0DBFD5020FFF7A1FE4FF412
:100A70008071264801F0D1FD4FF48071234801F0C8
:100A8000CEFD0120FFF794FE5046FFF791FE4FF494
:100A900080711E4801F0C1FDBDE8F0872DE9F041ED
:100AA00006460F469046002435034FF480711748E0
:100AB00001F0B5FD0620FFF77BFE4FF4807113486F
:100AC00001F0ABFD4FF48071104801F0A8FD032048
:100AD000FFF76EFE280CFFF76BFEC5F30720FFF74C
:100AE00067FEE8B2FFF764FE00BF05E0FF20FFF7F6
:100AF0005FFE08F80400641CBC42F7D34FF4807119
:100B0000024801F08AFDBDE8F081000000080140C4
:100B1000000C014008B50420ADF8000003208DF85A
:100B2000020018208DF803006946FF4801F0CAFC56
:100B30000820ADF8000004208DF803006946FA484B
:100B400001F0C0FC0220ADF8000003208DF8020087
:100B500010208DF803006946F34801F0B3FC08BD8E
:100B600008B54FF4E06001F0EDF825208DF80000A5
:100B700000208DF8020001208DF80300684601F086
:100B8000E6F808BD1FB5044600940020ADF8040047
:100B9000ADF80600ADF80800ADF80C000C20ADF87B
:100BA0000A006946E14801F0F2FF012240F22551B6
:100BB000DE4802F084F80121DC4802F074F81FBD21
:100BC00010B5FFF7A7FF4FF41650FFF7DBFF022029
:100BD000D749086010BD10B504462146D34802F03D
:100BE000D2F800BF8021D14802F03BF90028F9D0AB
:100BF00010BD10B504460220CE49086003E02078FD
:100C0000FFF7E9FF641C20780028F8D10220C849CA
:100C1000086010BD70B504460D460220C549086045
:100C200003E02078FFF7D7FF641C2800A5F101013D
:100C3000CDB2F6D10220BE49086070BD2DE9F04169
:100C4000C0B006460F4690461D4632208DF8000083
:100C500041208DF8010000208DF802008DF803007E
:100C600001208DF804008DF8056000208DF8060045
:100C70008DF807508DF80870AF4800788DF809009E
:100C8000AE4800788DF80A00AD4800788DF80B006A
:100C9000002407E018F8041004F10C000DF800100F
:100CA000601CC4B2A81FA042F4DC002104F10C00B7
:100CB0000DF80010AA21401C0DF80010401CC1B214
:100CC0006846FFF7A7FF40B0BDE8F0817CB5044659
:100CD00000252078E17888421FDC2078E17888427E
:100CE00001DA01251AE060782179884213DC607806
:100CF0002179884201DA012510E0A07861798842E3
:100D000007DCA0786179884201DA012506E0002538
:100D100004E0002502E0002500E00025012D7AD145
:100D2000684600F021FB9DF802002178884273DBC1
:100D30009DF80200E17888426EDC9DF8020021787F
:100D4000884206DD9DF80200E178884201DA012040
:100D50007CBD9DF80200217888421BD19DF80200DD
:100D6000E178884216D09DF80100617888420FDB57
:100D70009DF801006178884201DD0120E8E79DF8D7
:100D80000000A178884201DB0120E1E70020DFE7D5
:100D90000020DDE79DF80200217888421BD09DF8F5
:100DA0000200E178884216D19DF80100217988423D
:100DB0000FDC9DF801002179884201DA0120C7E7A4
:100DC0009DF800006179884201DC0120C0E7002025
:100DD000BEE70020BCE79DF80200217888424AD196
:100DE0009DF80200E178884245D19DF801006178C4
:100DF00088423ADB9DF801002179884235DC9DF874
:100E000001006178884208DD9DF80100217988425F
:100E100003DA01209CE72CE029E09DF801006178CD
:100E200088420DD19DF801002179884208D09DF8B3
:100E30000000A178884201DB012089E7002087E7D4
:100E40009DF80100617888420DD09DF8010021795C
:100E5000884208D19DF800006179884201DC0120B8
:100E600076E7002074E7002072E7002070E700209A
:100E70006EE700206CE700BF6AE7FEB540F225513F
:100E80002A4802F004F8002825D02E48B0F90000C6
:100E9000B0F5007F1FDA254801F079FFC1B229487B
:100EA000B0F900200088401C00B2264B188026486C
:100EB000815426480078D8B91846008802280FD1F6
:100EC0002148407841280BD11F480078322803D1AF
:100ED00001201E4908702FE100201A490880FEBD3C
:100EE000194800783228F6D0002016490880F6E725
:100EF000164800780128EED11248B0F90000082801
:100F0000E9DD1148C0791049897940EA0120C6B26B
:100F10000C48B0F9001006F109008142DBDD0A49F6
:100F2000085CAA2879D113E000080140003801408C
:100F3000140801401008014006110020081100208B
:100F400009110020001100202011002004110020B0
:100F500000207A4908807A4908707A484079DB286D
:100F60002BD179480078401C7749087008460078F2
:100F7000782801DB782008707248C079801C71499C
:100F8000897940EA01246F4A921D21466E48007813
:100F9000FFF78AFC00208DF808006B4800788DF878
:100FA000090002AA02210020FFF77EFC0623654A01
:100FB0000121BB20FFF742FEB1E062484079DD2805
:100FC00013D16048C079801C5E49897940EA0124C8
:100FD0005C4A921D21467920FFF766FC0623594A98
:100FE0000121BD20FFF72AFE99E056484079DE280E
:100FF00014D15448C079801C5249897940EA0124AF
:10100000504A921D21467A20FFF74EFC06234D4A96
:101010000121BE20FFF712FE81E081E049484079BE
:10102000D12816D1002048490870484908708DF829
:101030000800454800788DF8090002AA0221002026
:10104000FFF732FC06233F4A0121B120FFF7F6FDEE
:1010500065E03C484079D2280BD100203C4908701B
:1010600000F0F3FB0623374A0121B220FFF7E6FD2B
:1010700055E034484079D3280BD101203449087019
:1010800000F0E3FB06232F4A0121B320FFF7D6FD32
:1010900045E02C484079D4280FD1002504E00020F9
:1010A00028494855681CC5B2032DF8DB0923254A99
:1010B0000121B420FFF7C2FD31E022484079D52854
:1010C0001FD1684600F050F99DF806001D490870D0
:1010D0009DF8050048709DF8030088709DF8040095
:1010E000C8709DF8020008719DF8010048719DF8D4
:1010F000000088710D230A460121B520FFF79EFDEF
:101100000DE010484079D62809D10E48103000F083
:101110006FFA06230B4A0121B620FFF78FFDDEE6AA
:10112000002006490880064908700623054A002168
:101130000846FFF783FDD2E600BFD0E6001100208D
:1011400004110020201100200811002009110020A6
:101150000611002038B504466CB94020ADF80000F7
:1011600048208DF8030003208DF802006946FF48EF
:1011700001F0A8F90CE04020ADF8000010208DF837
:10118000030003208DF802006946F84801F09AF93F
:1011900038BD70B504468021F44801F040FA0120C2
:1011A000FFF7D8FF002516E014F0010F04D040210E
:1011B000EE4801F032FA03E04021EC4801F02FFA4A
:1011C0008021EA4801F029FA8021E84801F027FA55
:1011D0006410681CC5B2082DE6DB70BD70B505460D
:1011E0000C462021E14801F01AFA8021DF4801F085
:1011F00016FA2021DD4801F010FA2846FFF7C9FF52
:101200002046FFF7C6FF8021D84801F006FA2021CA
:10121000D64801F004FA70BD10B5044624B110217F
:101220008E20FFF7DBFF03E000218E20FFF7D6FFC3
:1012300010BD70B504460D460020FFF7EDFF2946AE
:101240002046FFF7CBFF0120FFF7E6FF70BD70B52A
:101250008021C64801F0E3F90020FFF77BFF00255D
:1012600014E064104021C14801F0BDF910B144F010
:10127000800401E024F080048021BC4801F0CDF915
:101280008021BA4801F0CBF9681CC5B2082DE8DB13
:10129000204670BD70B504462021B44801F0BFF966
:1012A0008021B24801F0BBF92021B04801F0B5F926
:1012B00044F00100FFF76DFFFFF7C9FF05468021ED
:1012C000AA4801F0AAF92021A84801F0A8F9284667
:1012D00070BD10B58020FFF7DDFF044614F0800FCD
:1012E00003D000218020FFF7A4FF10BD08B5E02047
:1012F000ADF8000010208DF8030003208DF80200E7
:1013000069469A4801F0DEF8FFF7E3FF08BD70B5C3
:1013100006460C463046FFF7BDFF05462CB1681C5B
:10132000C1B23046FFF75AFF04E0681EC1B2304632
:10133000FFF754FF70BD70B505468520FFF7AAFF83
:1013400000F07F040020FFF767FF2DB144F080011B
:101350008420FFF743FF03E021468420FFF73EFF90
:101360000120FFF759FF70BD7CB505468020FFF7CF
:1013700091FF044604F00F00C4F3021101EB810158
:1013800000EB41008DF800008220FFF783FF044648
:1013900004F00F00C4F3021101EB810100EB4100E6
:1013A0008DF801008420FFF775FF044604F00F005C
:1013B000C4F3011101EB810100EB41008DF8020043
:1013C0008620FFF767FF044604F00F00C4F3011105
:1013D00001EB810100EB41008DF803008A20FFF74B
:1013E00059FF044604F007008DF804008820FFF739
:1013F00051FF044604F00F0004F00101091101EB54
:10140000810100EB41008DF805008C20FFF742FFC1
:10141000044604F00F00210901EB810100EB4100BB
:10142000C0B28DF8060000982860BDF80400A880BE
:101430009DF80600A8717CBD70B504460D4680205D
:10144000FFF728FF064606F00F00C6F3021101EB76
:10145000810100EB410020708220FFF71BFF064650
:1014600006F00F00C6F3021101EB810100EB410011
:1014700060708420FFF70EFF064606F00F00C6F3EB
:10148000011101EB810100EB4100A0708620FFF704
:1014900001FF064606F00F00C6F3011101EB8101C2
:1014A00000EB4100E0708A20FFF7F4FE064606F0EC
:1014B000070020718820FFF7EDFE064606F00F00BA
:1014C000C6F3001101EB810100EB410060718C203B
:1014D000FFF7E0FE064606F00F00310901EB81013F
:1014E00000EB4100A0710220287000206870A079F4
:1014F0000A2190FBF1F0A870A07990FBF1F201FBBA
:101500001200E8700A202871607990FBF1F0687190
:10151000607990FBF1F201FB1200A8710A20E871DA
:10152000E07890FBF1F02872E07890FBF1F201FB9B
:1015300012006872A07890FBF1F0A872A07890FB7E
:10154000F1F201FB1200E8720B202873607890FB27
:10155000F1F06873607890FBF1F201FB1200A87360
:101560000B20E873207890FBF1F001E0000C0140C3
:101570002874207890FBF1F201FB12006874207946
:10158000A87470BD10B50020FFF7D5FE00218020A3
:10159000FFF74FFE30218220FFF74BFE1121842000
:1015A000FFF747FE14218620FFF743FE072188201E
:1015B000FFF73FFE0B218C20FFF73BFE04218A2022
:1015C000FFF737FE10BD30B5014663290EDC0A2057
:1015D00091FBF0F0C2B20A2091FBF0F500FB151070
:1015E000C4B244EA0210C3B2184630BD0020FCE782
:1015F00070B504460020FFF79EFE21788C20FFF78F
:1016000018FE6078FFF7DFFF054601468820FFF7E8
:1016100010FEA078FFF7D7FF054601468620FFF7AA
:1016200008FEE078FFF7CFFF054601468A20FFF766
:1016300000FE2079FFF7C7FF054601468420FFF72B
:10164000F8FD6079FFF7BFFF054601468220FFF7EE
:10165000F0FDA079FFF7B7FF054601468020FFF7B0
:10166000E8FD70BD002105E0002200E0521C322A96
:10167000FCD3491C8142F7D370474FF40060FF4907
:101680000860FF49C1F81008FC490860704710B5B0
:10169000002225E010F0800F09D0082903DA80230A
:1016A000F64C23600CE04023F44C236008E008294A
:1016B00003DA8023F34C236002E04023F14C2360E3
:1016C0004FF48053EF4C23604FEA40634FEA1360BE
:1016D0004FF48053EA4CC4F8143802F10103DAB233
:1016E000082AD7DB10BD0146C21700EB5272D21098
:1016F000A0EBC202D0B208286DD2DFE800F00411DE
:101700001E2B3845525F2021DC4A11604FF010013A
:10171000DB4AC2F814184FF48061DB4A11605AE0CA
:101720002021D84A11604FF01001D54AC2F8141890
:101730004FF48061D44A11604DE02021CF4A1160FE
:101740004FF01001CE4AC2F810184FF48061CE4A13
:10175000116040E02021CB4A11604FF01001C84ACF
:10176000C2F810184FF48061C74A116033E020219D
:10177000C24A11604FF01001C14AC2F814184FF468
:101780008061C24A116026E02021BE4A11604FF0FC
:101790001001BB4AC2F814184FF48061BB4A1160B3
:1017A00019E02021B54A11604FF01001B44AC2F887
:1017B00010184FF48061B54A11600CE02021B14A45
:1017C00011604FF01001AE4AC2F810184FF480615A
:1017D000AE4A116000BF00BF704730B5002429E059
:1017E0002046FFF780FF002513E0A94901EB4511D2
:1017F00011F814002146FFF74AFFA54901EB4511F6
:10180000012202EB4402885C2146FFF740FF681C7E
:10181000C5B2042DE9DBFFF730FF01209A490860CB
:101820004FF02800FFF71EFF01209549C1F8100C6A
:10183000601CC4B2102CD3DB30BD10B5A02194487D
:1018400001F0DFFBFFF7C9FF10BD10B5044644B13E
:1018500004208D4908604FF002008949C1F8140C3A
:1018600009E0FFF7EAFF0420884908604FF0020012
:101870008349C1F8100C10BD08B501217C2001F08E
:10188000D4F803208DF8020010208DF8030040F2F8
:101890000740ADF8000069467C48103800F012FEA1
:1018A00041F6F000ADF8000069467648103800F0C7
:1018B00009FE0420744908604FF002007049C1F825
:1018C000140C4FF00100704908606D49C1F8100C0C
:1018D000FEF74CFDFEF740FFFFF708FD0020FFF785
:1018E000B4FF08BD2DE9F84F80468A460027002442
:1018F0000026A1460025FFF7A0FF00BF92E018F8E0
:10190000060020280EDD18F806007E280ADC701C70
:1019100018F8000018F8061040EA01200090701C2A
:10192000C6B209E0701C18F8000018F8061040EA6A
:1019300001200090701CC6B2681CC5B200BFFEF743
:10194000BFFE0128FBD1A5F1010B4FEAEB700BEBB9
:1019500090708010ABEB80004E4A02EB401141F2D8
:1019600016520098FEF759FEE91705EB91718910A0
:10197000B5EB810104D0AAF10101B14200DD4FE0D5
:10198000E91705EB91718910B5EB810112D028465A
:10199000E91705EB91718910A5EB8101CFB207E042
:1019A0003C4901EB4710202101F02BFB781CC7B20A
:1019B000042FF5DB002500272FE000241DE0344A2A
:1019C00002EB4412911C324A02EB44101E2201F039
:1019D000A1FA2F4800EB44102E4901EB441109886D
:1019E000C1832C4A02EB4412911C2A4A02EB441098
:1019F0001E2201F08FFA601CC4B2042CDFDB4FF012
:101A0000000905E0FFF7E9FE09F1010000F0FF0918
:101A1000B9F1320FF6DB781CC7B2102FCDDB00BF57
:101A2000701CC6B25645FFF66AAF002707E0194999
:101A300001EB4710202101F0E4FA781CC7B2042F13
:101A4000F5DB00273FE000242DE0114A02EB4412B1
:101A5000911C0F4A02EB44101E2201F05BFA0C4865
:101A600000EB44100B4901EB44110988C183094A7A
:101A700002EB4412911C074A0EE0000014080140DA
:101A80000000014010080140140C0140100C0140FE
:101A900021130020E113002002EB44101E2201F06C
:101AA00039FA601CC4B2042CCFDB4FF0000905E00A
:101AB000FFF793FE09F1010000F0FF09B9F1320FC1
:101AC000F6DB781CC7B2102FBDDBBDE8F88F2DE91F
:101AD000F84F07468846FFF7B0FE7878397840EA35
:101AE0000120009000268AE0B85D20280BDDB85D5B
:101AF0007E2808DC701C385CB95D40EA012000904B
:101B0000701CC6B207E0701C385CB95D40EA012069
:101B10000090701CC6B20BF1010000F0FF0B00BF7B
:101B2000FEF7CEFD0128FBD141F216528449009800
:101B3000FEF773FD4FF0000A5CE0002448E000254A
:101B400042E07F48803800EB441010F81500410057
:101B50007B48803800EB44126800401C105C41EA6E
:101B6000E0107749803901EB441101F81500042C8D
:101B700018D07348803800EB44116800401C085CA2
:101B800041006F4A803A601C02EB401010F81500CB
:101B900041EAE010C1B2104600EB44126800401C5C
:101BA00011540FE06648803800EB44116800401C77
:101BB000085C4006010E6248803800EB4412680061
:101BC000401C1154681CC5B2102DBADB601CC4B295
:101BD000052CB4DB4FF0000905E0FFF7FEFD09F12D
:101BE000010000F0FF09B9F1320FF6DB0AF1010044
:101BF00000F0FF0ABAF1100F9FDB701CC6B2464519
:101C0000FFF672AFBDE8F88F2DE9F04105460E46AC
:101C100017461C46012C02D0032C0AD104E03146A1
:101C20002846FFF754FF05E031462846FFF75AFEE5
:101C300000E000BF00BFBDE8F0812DE9F047054698
:101C40000E4600270024A146A046FFF7F6FD00BF80
:101C500028E0285D20280ADD285D7E2807DC601C3E
:101C6000285C295D40EA0129601CC4B206E0601CC2
:101C7000285C295D40EA0129601CC4B200BFFEF760
:101C80001FFD0128FBD12E48803800EB481141F29E
:101C900016524846FEF7C1FC08F1010000F0FF08AB
:101CA000601CC4B2B442D4DB002703E0FFF795FD0B
:101CB000781CC7B2FF2FF9DBBDE8F0872DE9F047AC
:101CC00005460E4600270024A146A046FFF7B5FDB5
:101CD00000BF30E0285D20280ADD285D7E2807DC73
:101CE000601C285C295D40EA0129601CC4B206E042
:101CF000601C285C295D40EA0129601CC4B200BF59
:101D0000FEF7DEFC0128FBD10D48803800EB4811BE
:101D100041F216524846FEF780FC08F1010000F03F
:101D2000FF08002703E0FFF758FD781CC7B2FF2F1C
:101D3000F9DB601CC4B2B442CCDBBDE8F087000024
:101D4000A113002036490143364A1160704770B52F
:101D5000002100230F22C4784CB3324C246804F4D1
:101D6000E064C4F5E0644FEA1421C1F1040322FAEF
:101D700001F2447804FA03F1847804EA020444EAA4
:101D800001014FEA0111284C0678A155047804F0AE
:101D90001F054FF0010404FA05F405784FEA6515B4
:101DA0004FF0E02606EB8505C5F8004109E0047810
:101DB00004F01F050124AC401C4D0678761145F84F
:101DC000264070BD1A4A0A4002431A4B1A607047F7
:101DD00041B1194A126842EA00024FF0E023C3F809
:101DE000102D07E0144A126822EA00024FF0E023A7
:101DF000C3F8102D7047042808D14FF0E02109697D
:101E000041F004014FF0E022116107E04FF0E021C2
:101E1000096921F004014FF0E022116170470000D0
:101E20000000FA050CED00E000E400E080E100E0D5
:101E300080FFFF1F08ED00E010ED00E001460020EC
:101E4000FF4A106800F03800084310607047FC49F2
:101E5000096821F00801FA4A116011460968014336
:101E600011607047F649096821F01001F44A1160C9
:101E700011460968014311607047F248F049486013
:101E8000F14848607047EF48ED494860EE484860C7
:101E90007047EB48006940F08000E94908617047ED
:101EA000E748006940F08000E54908617047042078
:101EB000E349C96801F00101012901D101200EE0C7
:101EC000DF49C96811F0040F01D0022007E0DC49A6
:101ED000C96811F0100F01D0032000E00420704702
:101EE00000B502460423FFF7E2FF034603E0FFF7D5
:101EF000DEFF0346521E012B01D1002AF7D102B9A1
:101F00000523184600BD30B5044604254FF43020A3
:101F1000FFF7E6FF0546042D17D1C948006940F0D8
:101F20000200C749086108464461006940F040006A
:101F300008614FF43020FFF7D3FF0546C048006921
:101F400041F6FD710840BE490861284630BD10B514
:101F500004244FF43020FFF7C3FF0446042C16D1AD
:101F6000B748006940F00400B549086108460069B7
:101F700040F0400008614FF43020FFF7B1FF044605
:101F8000AF48006941F6FB710840AD490861204641
:101F900010BD00B502460423FFF789FF034603E0A6
:101FA000FFF785FF0346521E012B01D1002AF7D10E
:101FB00002B90523184600BD10B504244FF43020A3
:101FC000FFF7E7FF0446042C16D19D48006940F056
:101FD00004009B4908610846006940F04000086120
:101FE0004FF43020FFF7D5FF04469548006941F6CD
:101FF000FB71084092490861204610BD00209049BD
:10200000C96911F0020F01D0012000E000207047E3
:1020100030B5A5250424FFF7F1FF00B100254FF4EA
:102020003020FFF75DFF0446042C3BD185488449EE
:102030008860854888600846006940F02000086193
:102040000846006940F0400008614FF43020FFF777
:1020500047FF0446042C1CD17948006941F6DF7122
:102060000840774908610846006940F0100008619F
:10207000764805804FF40050FFF732FF0446052CE8
:1020800010D06F48006941F6EF7108406C49086153
:1020900008E0052C06D06A48006941F6EF71084057
:1020A00067490861204630BDF0B504460D46042658
:1020B0000027F002FFF714FF0646042E22D16048E5
:1020C000006940F001005E4908612580F002FFF7D9
:1020D00007FF0646042E0ED1A71C280C3880F002FC
:1020E000FFF7FEFE06465648006941F6FE710840BD
:1020F0005349086106E05248006941F6FE71084004
:102100004F4908613046F0BD70B504460D460426BF
:10211000F002FFF7E5FE0646042E11D1484800699B
:1021200040F00100464908612580F002FFF7D8FE23
:1021300006464348006941F6FE710840404908617F
:10214000304670BD70B505460E460424E002FFF728
:10215000C7FE0446042C17D13A48394988603A48EA
:1021600088600846006940F0100008612E80E00297
:10217000FFF7B6FE0446052C06D03148006941F64B
:10218000EF7108402E490861204670BD2DE9F043EB
:1021900004464FF6FF763746B046B1460425E44381
:1021A000E6B2C4F30727C4F307484FEA1469E8020C
:1021B000FFF796FE0546042D3ED12248204988604F
:1021C000214888600846006940F010000861FF2E31
:1021D00006D01F4806804FF40050FFF781FE0546E9
:1021E000042D08D1FF2F06D01A4807804FF4005065
:1021F000FFF776FE0546042D09D1B8F1FF0F06D092
:102200001548A0F80C88E802FFF76AFE0546042D81
:1022100009D1B9F1FF0F06D00F48A0F80E98E802D7
:10222000FFF75EFE0546052D06D00548006941F61C
:10223000EF710840024908612846BDE8F0830000BC
:102240000020024023016745AB89EFCD00F8FF1F56
:1022500008F8FF1F0AF8FF1F00F0FF1F30B5054602
:1022600004244FF43020FFF73BFE0446042C41D1F8
:102270005F4860498860604888600846006940F0AF
:10228000200008610846006940F0400008614FF4F2
:102290003020FFF725FE0446042C22D15548006962
:1022A00041F6DF710840534908610846006940F073
:1022B000100008611DB100205049088002E0A520EF
:1022C0004E4908804FF43020FFF70AFE0446052CE3
:1022D00010D04848006941F6EF710840454908614F
:1022E00008E0052C06D04348006941F6DF7108403C
:1022F00040490861204630BDF0B505460E461746F8
:1023000004243B483B4988603B488860E002FFF773
:10231000E7FD0446042C19D13648006940F010004E
:102320003449086147F0F8003043284334490880B5
:102330004FF40050FFF7D4FD0446052C06D02D487D
:10234000006941F6EF7108402A4908612046F0BD56
:102350002848C069800870472648006A70470020F6
:102360002449096811F0200F01D0012000E000206D
:10237000704729B11F4A126902431E4B1A6104E0DB
:102380001C4A126982431B4B1A61704701460020A8
:10239000012908D1174AD26912F0010F01D001209A
:1023A00008E0002006E0134AD2680A4201D001206A
:1023B00000E0002070470F49C860704704200D49B5
:1023C000C96801F00101012901D101200EE009498C
:1023D000C96811F0040F01D0022007E00549C9685F
:1023E00011F0100F01D0032000E00420704700001E
:1023F0002301674500200240AB89EFCD00F8FF1FA5
:1024000002F8FF1F10B50446CA48844208D10121D2
:10241000042000F024FB0021042000F020FB46E013
:10242000C548844208D10121082000F018FB002192
:10243000082000F014FB3AE0C048844208D1012192
:10244000102000F00CFB0021102000F008FB2EE013
:10245000BB48844208D10121202000F000FB00216C
:10246000202000F0FCFA22E0B648844208D1012185
:10247000402000F0F4FA0021402000F0F0FA16E0CD
:10248000B148844208D10121802000F0E8FA0021FF
:10249000802000F0E4FA0AE0AC48844207D1012130
:1024A000801500F0DCFA0021A01500F0D8FA10BD6C
:1024B00010B50121084600F0D2FA0021012000F0F9
:1024C000CEFA10BD2DE9F04102460025002600207D
:1024D00000230024002791F803C00CF00F0591F8A9
:1024E00003C01CF0100F03D091F802C04CEA0505A0
:1024F000B1F800C01CF0FF0F31D0146800202BE0B1
:102500004FF0010C0CFA00F3B1F800C00CEA03061E
:102510009E4220D183004FF00F0C0CFA03F7BC430E
:1025200005FA03FC4CEA040491F803C0BCF1280F3F
:1025300006D14FF0010C0CFA00FCC2F814C00AE0FE
:1025400091F803C0BCF1480F05D14FF0010C0CFA13
:1025500000FCC2F810C0401C0828D1D31460B1F8A8
:1025600000C0BCF1FF0F34DD546800202EE000F104
:10257000080C4FF0010808FA0CF3B1F800C00CEA9F
:1025800003069E4221D183004FF00F0C0CFA03F793
:10259000BC4305FA03FC4CEA040491F803C0BCF107
:1025A000280F05D100F1080C08FA0CF8C2F81480C5
:1025B00091F803C0BCF1480F07D100F1080C4FF0AF
:1025C000010808FA0CF8C2F81080401C0828CED385
:1025D0005460BDE8F0814FF6FF71018002218170E7
:1025E0000421C17070470246002093680B4201D05D
:1025F000012000E0002070470146886880B27047E3
:1026000002460020D3680B4201D0012000E00020E8
:1026100070470146C86880B27047016170474161E8
:1026200070470AB1016100E041617047C1607047C5
:102630004FF480320A4382618161826182698269DA
:10264000704702460020424B18684FF680731840CE
:1026500040EA021008433E4B186070473D49C8618C
:102660007047F0B50A46002300240021002500F041
:102670000046B6F1004F02D1354EF16901E0344E0B
:102680007168C0F3034583B200F44016B6F5401FED
:1026900008D121F070612E4E766826F070662C4FBE
:1026A0007E6012E000F48016B6F5801F06D1032686
:1026B00006FA05F4A14341F0706106E0460D3601CB
:1026C00003FA06F6B14341F0706122B1460D3601BE
:1026D00003FA06F6314300F00046B6F1004F02D18E
:1026E0001B4EF16101E01A4E7160F0BD30B5002261
:1026F0008B071C0F0F2303FA04F2154B08338C10C1
:1027000053F824309343124C08348D1044F825308C
:1027100023468C1053F824308C07240F00FA04F45D
:1027200023430B4C08348D1044F8253030BD0A4942
:102730000860704700080140000C01400010014093
:102740000014014000180140001C0140002001401D
:102750000000014000002042DC002042DB4800680D
:1027600040F00100D949086008464068D84908404F
:10277000D649486008460068D6490840D3490860F1
:102780000846006820F4802008600846406820F46D
:10279000FE0048604FF41F0088607047CB4909680D
:1027A00021F48031C94A11601146096821F4802161
:1027B0001160B0F5803F03D0B0F5802F0ED106E058
:1027C000C249096841F48031C04A116007E0BF493D
:1027D000096841F4A021BD4A116000E000BF00BFBC
:1027E000704710B501460022002300204A11012A3B
:1027F00002D1B64C236806E0022A02D1B34C236A08
:1028000001E0B24C636A01F01F02012494401C42B3
:1028100001D0012000E0002010BD70B5002400258B
:10282000002600BF3120FFF7DCFF0646641CB4F52C
:10283000A06F01D0002EF5D03120FFF7D2FF08B1F4
:10284000012500E00025284670BD014600209F4A72
:10285000106820F0F80040EAC100106070479E49FF
:102860000860704702460020984B586820F47C109E
:1028700042EA01031843954B586070479649086631
:10288000704701460020914A506820F00300084339
:10289000506070478D48406800F00C00704701465A
:1028A00000208A4A506820F0F000084350607047CA
:1028B00001460020854A506820F4E06008435060DB
:1028C000704701460020814A506820F4605040EA79
:1028D000C1005060704729B17C4A527A02437B4B59
:1028E0005A7206E0794A527AC343DBB21A40774BF8
:1028F0005A72704779490860704701460020734A50
:10290000506820F440400843506070470021744AEA
:1029100011706E4A82F82010012802D0042808D1D4
:1029200003E001216E4A117004E005216C4A117028
:1029300000E000BF00BF70476A4908607047634904
:10294000096A0143614A116270476749086070472C
:1029500030B500210022002400235C4D6D6805F095
:102960000C0121B1042905D0082923D105E05F4DD0
:10297000056022E05E4D05601FE0544D6D6805F472
:102980007012524D6D6805F48034022505EB9242B9
:102990001CB9584D554305600BE04C4D6D6815F45E
:1029A000003F03D0544D5543056002E0504D554360
:1029B000056002E04D4D056000BF00BF434D6D68EE
:1029C00005F0F00109094D4D6B5C0568DD4045607F
:1029D0003E4D6D6805F4E061090A484D6B5C456841
:1029E000DD408560394D6D6805F46051C90A434D7D
:1029F0006B5C4568DD40C560344D6D6805F4404151
:102A0000890B3F4D6B5CC568B5FBF3F5056130BDC7
:102A100029B12E4A526902432C4B5A6104E02B4AD9
:102A200052698243294B5A61704729B1274A9269FA
:102A30000243264B9A6104E0244A92698243234B65
:102A40009A61704729B1214AD26902431F4BDA616A
:102A500004E01E4AD26982431C4BDA61704729B1F7
:102A60001A4AD2680243194BDA6004E0174AD26866
:102A70008243164BDA60704729B1144A1269024347
:102A8000124B1A6104E0114A126982430F4B1A611A
:102A900070471C49086070470F49C86470470B496C
:102AA000C87170470948406A40F080700749486221
:102AB000704701460020054A92680A4201D0012071
:102AC00000E0002070470149887270470010024002
:102AD0000000FFF8FFFFF6FE00004242D80042422D
:102AE00020100240800442423C04424200127A001C
:102AF000001BB70000093D00808D5B000A1100201B
:102B00001A1100204004424210B50446FC48844299
:102B100009D101218803FFF7A2FF00214FF4804073
:102B2000FFF79DFF32E0F748844209D101214804B4
:102B3000FFF7A2FF00214FF40030FFF79DFF25E0D3
:102B4000F148844209D101218804FFF795FF002153
:102B50004FF48020FFF790FF18E0EC48844209D141
:102B60000121C804FFF788FF00214FF40020FFF780
:102B700083FF0BE0E648844208D101210805FFF7F6
:102B80007BFF00214FF48010FFF776FF10BD2DE989
:102B9000F04786B005460E460024A24600BFA14677
:102BA0000027B08900B100BF2F462C8A4CF6FF7079
:102BB0000440F08804432C82AC894EF6F3100440A4
:102BC000B08831890843718908430443AC81AC8AD9
:102BD0004FF6FF400440B0890443AC8201A8FFF7E0
:102BE000B7FEC748874202D1DDF810A001E0DDF84A
:102BF0000CA0A88910F4004F08D00AEBCA0000EB23
:102C00000A1031684900B0FBF1F807E00AEBCA008E
:102C100000EB0A1031688900B0FBF1F86420B8FBC2
:102C2000F0F004012009642101FB1089A88910F447
:102C3000004F08D0322000EBC900B0FBF1F000F0EB
:102C40000700044308E0322000EB09106421B0FBC8
:102C5000F1F000F00F0004432C8106B0BDE8F087CE
:102C60004FF41651016000218180C18001810C2147
:102C7000418100218181704710B502460020108AF1
:102C80004FF2FF0318400B884C8823438C88234362
:102C9000CC8823431843108210BD0021018041805D
:102CA0008180C180704721B1828942F400528281C3
:102CB00004E082894DF6FF731A4082817047F0B5B7
:102CC00003460024002600250020A1F510676A3F76
:102CD00000D100BF1846C1F3421401F01F060127BE
:102CE00007FA06F5012C01D10C3004E0022C01D1C9
:102CF000103000E014301AB107682F43076002E07B
:102D00000768AF430760F0BD10B51AB1838A0B4363
:102D1000838204E0838ACC43A4B22340838210BD23
:102D2000028A4FF6F0731A400282028A0A43028234
:102D3000704782894FF2FF731A40828182890A4369
:102D40008281704721B1828942F00202828104E0CF
:102D500082894FF6FD731A4082817047028A4FF6CE
:102D6000DF731A400282028A0A430282704721B14D
:102D7000028A42F48042028204E0028A4BF6FF7328
:102D80001A4002827047C1F30802828070470146F0
:102D90008888C0F308007047818941F00101818172
:102DA0007047028BD2B20283028B42EA0122028375
:102DB0007047028B02F47F420283028B0A43028334
:102DC000704721B1828A42F02002828204E0828A26
:102DD0004FF6DF731A408282704721B1828A42F037
:102DE0001002828204E0828A4FF6EF731A408282D8
:102DF000704721B1828A42F00802828204E0828A0E
:102E00004FF6F7731A408282704721B1828942F4EB
:102E10000042828103E08289C2F30E028281704700
:102E200021B1828A42F40062828204E0828A4FF2F7
:102E3000FF731A4082827047828A4FF6FB731A40F2
:102E40008282828A0A438282704721B1828A42F05A
:102E50000202828204E0828A4FF6FD731A40828267
:102E6000704702460020B1F5007F00D100BF1388F3
:102E70000B4201D0012000E00020704701F40072F5
:102E8000B2F5007F00D100BFCA430280704770B521
:102E900002460024002300250020A1F510666A3EAA
:102EA00000D100BFC1F3421501F01F03012606FA4D
:102EB00003F3012D02D19689334006E0022D02D1A1
:102EC000168A334001E0968A33400C12012606FA36
:102ED00004F41688344013B10CB1012000E0002046
:102EE00070BD10B500220023A1F510646A3C00D12A
:102EF00000BF0A1201249440A3B2DC43048010BD39
:102F0000003801400044004000480040004C0040B0
:102F100000500040032A40F2308010F0030C00F013
:102F2000158011F8013BBCF1020F624498BF11F803
:102F300001CB00F8013B38BF11F8013BA2F10402BC
:102F400098BF00F801CB38BF00F8013B11F0030334
:102F500000F02580083AC0F0088051F8043B083A98
:102F600051F804CBA0E80810F5E7121D5CBF51F83A
:102F7000043B40F8043BAFF30080D20724BF11F8B4
:102F8000013B11F801CB48BF11F8012B24BF00F819
:102F9000013B00F801CB48BF00F8012B704710B58A
:102FA000203AC0F00B80B1E81850203AA0E8185041
:102FB000B1E81850A0E81850BFF4F5AF5FEA027C02
:102FC00024BFB1E81850A0E8185044BF18C918C071
:102FD000BDE810405FEA827C24BF51F8043B40F812
:102FE000043B08BF7047D20728BF31F8023B48BFF7
:102FF00011F8012B28BF20F8023B48BF00F8012B35
:1030000070474FF000020429C0F0128010F0030C4A
:1030100000F01B80CCF1040CBCF1020F18BF00F8CB
:10302000012BA8BF20F8022BA1EB0C0100F00DB87A
:103030005FEAC17C24BF00F8012B00F8012B48BFD8
:1030400000F8012B70474FF0000200B5134694467C
:103050009646203922BFA0E80C50A0E80C50B1F1F0
:103060002001BFF4F7AF090728BFA0E80C5048BF04
:103070000CC05DF804EB890028BF40F8042B08BFA2
:10308000704748BF20F8022B11F0804F18BF00F89E
:10309000012B7047704770477047754600F028F85D
:1030A000AE4605006946534620F00700854618B035
:1030B00020B5FDF7BFF8BDE820404FF000064FF007
:1030C00000074FF000084FF0000B21F00701AC465D
:1030D000ACE8C009ACE8C009ACE8C009ACE8C0097C
:1030E0008D4670470446AFF300802046FDF789F80F
:1030F000004870476414002000487047681400209E
:1031000001491820ABBEFEE726000200704710B54B
:10311000FFF7F2FF4FF00001016010BD3C310008E5
:1031200000000020201100006C010008AC3D0008E8
:1031300020110020A8090000C801000832A132A215
:1031400032A332A432A532A632A732A832A932AABB
:1031500032AB32AC32AD32AE32AF32B032B132B26B
:1031600032B332B432B532B632B732B832B932BA1B
:1031700032BB32BC32BD32BE32BF32C032C132C2CB
:1031800032C332C432C532C632C732C832C932CA7B
:1031900032CB32CC32CD32CE32CF32D032D132D22B
:1031A00032D332D432D532D632D732D832D932DADB
:1031B00032DB32DC32DD32DE32DF32E032E132E28B
:1031C00032E332E432E532E632E732E832E932EA3B
:1031D00032EB32EC32ED32EE32EF32F032F132F2EB
:1031E00032F332F432F532F632F732F832F932FA9B
:1031F00032FB32FC32FD32FE32FF2301011A13048E
:103200001A1B041A2B041A44041A48041A4D041AEF
:1032100052041A53041A60041A61041A6B041A78CF
:10322000041A92041ACE041AD0041AD2041AD4042E
:103230001AD6041AD8041ADA041ADC041B51023410
:1032400019041AC6041AC7041AC9041ACA041ACBE4
:10325000041AD9041ADC041B91034C19041A9304B0
:103260001A94041A95041A96041A97041A98041AC0
:1032700099041A9A041A9B041A9C041A9D041A9E13
:10328000041A9F041AA0041AA1041AA3041AA4047D
:103290001AA5041AA6041AA7041AA8041AA9041A3B
:1032A000B1041AB2041AB3041AB4041AB5041AB653
:1032B000041AB7041AB8041AB9041ABA041ABB04D7
:1032C0001ABC041ABD041ABE041ABF041AC0041A98
:1032D000C1041AC3041AC4041AC5041AC6041AC7BE
:1032E000041AC8041AC9042301041A10041A110488
:1032F0001A12041A13041A14041A15041A16041ABA
:1033000017041A18041A19041A1A041A1B041A1C8E
:10331000041A1D041A1E041A1F041A20041A210478
:103320001A22041A23041A24041A25041A26041A39
:1033300027041A28041A29041A2A041A2B041A2CFE
:10334000041A2D041A2E041A2F041A30041A3104F8
:103350001A32041A33041A34041A35041A36041AB9
:1033600037041A38041A39041A3A041A3B041A3C6E
:10337000041A3D041A3E041A3F041A40041A410478
:103380001A42041A43041A44041A45041A46041A39
:1033900047041A48041A49041A4A041A4B041A4CDE
:1033A000041A4D041A4E041A4F041A51041B10201B
:1033B000FC19041A14041A15041A16041A18041A0B
:1033C00019041A1A041A1C041A1D041A1E041A20BD
:1033D000041A21041A22041A25041A26041A300495
:1033E0001A32041A33041A35041A39041A3A041A20
:1033F0003B041AAC042303211A05041A09041A1603
:10340000041A21041A22041A60041A61041A6204BC
:103410001A63041A64041A65041A66041A67041A03
:1034200068041A69041A6A041A6B041A70041A717F
:10343000041A72041A73041A74041A75041A7604AE
:103440001A77041A78041A79041A90041A91041A43
:1034500092041A93041A96041A97041A98041A9953
:10346000042308221A0F041A11041A15041A1A0444
:103470001A1D041A1E041A1F041A20041A23041AFF
:1034800025041A27041A28041A29041A2A041A2BB4
:10349000041A2E041A34041A35041A36041A37048E
:1034A0001A3D041A48041A4C041A52041A60041AE9
:1034B00061041A64041A65041A66041A67041A6E11
:1034C000041A6F041A95041A99041AA5041ABF0461
:1034D0001B1223341A243419041A62041A63041ABE
:1034E00064041A65041A66041A67041A68041A69DF
:1034F000041A74041A75041A76041A77041A7804E4
:103500001A79041A7A041A7B041A7C041A7D041AA4
:103510007E041A7F041A80041A81041A82041A8312
:10352000041A84041A85041A86041A87041A880463
:103530001A89041A8A041A8B041A8C041A8D041A24
:103540008E041A8F041A90041A91041A92041A9382
:10355000041A94041A95041A96041A97041A9804E3
:103560001A99041A9A041A9B041122251A01041AA2
:1035700002041A03041A04041A05041A06041A079A
:10358000041A08041A09041A0A041A0B041A0C046F
:103590001A0D041A0E041A0F041A10041A11041A30
:1035A00012041A13041A14041A15041A16041A170A
:1035B000041A18041A19041A1A041A1B041A1C04EF
:1035C0001A1D041A1E041A1F041A20041A21041AB0
:1035D00022041A23041A24041A25041A26041A277A
:1035E000041A28041A29041A2A041A2B041A2C046F
:1035F0001A2D041A2E041A2F041A30041A31041A30
:1036000032041A33041A34041A35041A36041A37E9
:10361000041A38041A39041A3A041A3B041A3C04EE
:103620001A3D041A3E041A3F041A40041A41041AAF
:1036300042041A43041A44041A45041A46041A4759
:10364000041A48041A49041A4A041A4B041A50046A
:103650001A51041A52041A53041A54041A55041A1B
:1036600056041A57041A58041A59041A5A041A5BB1
:10367000041A5C041A5D041A5E041A5F041A6004DA
:103680001A61041A62041A63041A64041A65041A9B
:1036900066041A67041A68041A69041A6A041A6B21
:1036A000041A6C041A6D041A6E041A6F041A70045A
:1036B0001A71041A72041A73041A81041A82041A01
:1036C00083041A84041A85041A86041A87041A8843
:1036D000041A89041A8A041A8B041A8C041A8D0499
:1036E0001A8E041A8F041A93041A94041A95041A51
:1036F000A0041AA1041AB2041AB3041ABC041ABD15
:10370000041AC6041AC7041ACB041ACE041ACF042A
:103710001AE2041AE3041AE4041AE5042305261A3B
:1037200006041A09041A40041A42041122301A012C
:10373000041A02041A03041A05041A06041A0704D8
:103740001A08041A09041A0A041A0B041A0C041A97
:103750000D041A0E041A0F041A10041A11041A1276
:10376000041A13041A14041A15041A16041A170456
:103770001A1D041A1E041A21041A22041A23041AF8
:1037800024041A25041A26041A27041A28041A29BC
:10379000041A3E041A41041A42041A43041A440447
:1037A0001A45041A46041A47041A48041A49041A06
:1037B0004A041A4B041A4C041A4D041A4E041A4FA8
:1037C000041A50041A51041A52041A53041A5404C5
:1037D0001A55041A56041A57041A58041A59041A86
:1037E0005A041A5B041A5C041A5D041A5E041A5F18
:1037F000041A60041A61041A62041A63041A640445
:103800001A65041A66041A67041A68041A69041A05
:103810006A041A6B041A6C041A6D041A6E041A6F87
:10382000041A70041A71041A72041A73041A7404C4
:103830001A75041A76041A77041A78041A79041A85
:103840007A041A7B041A7C041A7D041A7E041A7FF7
:10385000041A80041A81041A82041A83041A840444
:103860001A85041A86041A87041A88041A89041A05
:103870008A041A8B041A8C041A8D041A8E041A8F67
:10388000041A90041A91041A92041A93041A9B04BD
:103890001A9C041A9D041A9E041AA1041AA2041A5E
:1038A000A3041AA4041AA5041AA6041AA7041AA8A1
:1038B000041AA9041AAA041AAB041AAC041AAD0417
:1038C0001AAE041AAF041AB0041AB1041AB2041AD8
:1038D000B3041AB4041AB5041AB6041AB7041AB811
:1038E000041AB9041ABA041ABB041ABC041ABD0497
:1038F0001ABE041ABF041AC0041AC1041AC2041A58
:10390000C3041AC4041AC5041AC6041AC7041AC880
:10391000041AC9041ACA041ACB041ACC041ACD0416
:103920001ACE041ACF041AD0041AD1041AD2041AD7
:10393000D3041AD4041AD5041AD6041AD7041AD8F0
:10394000041AD9041ADA041ADB041ADC041ADD0496
:103950001ADE041ADF041AE0041AE1041AE2041A57
:10396000E3041AE4041AE5041AE6041AE7041AE860
:10397000041AE9041AEA041AEB041AEC041AED0416
:103980001AEE041AEF041AF0041AF1041AF2041AD7
:10399000F3041AF4041AF5041AF6041AFC041AFDC6
:1039A000041AFE042305311A06041A07041A08042F
:1039B0001A09041A0A041A0B041A0C041A0D041A20
:1039C0000E041A0F041A10041A11041A12041A13FE
:1039D000041A14041A15041A16041A17041A1804DF
:1039E0001A19041A1A041A1B041A1C041A1D041AA0
:1039F0001E041A1F041A20041A21041A22041A236E
:103A0000041A24041A25041A26041A27041A28045E
:103A10002A29281A322819041A22041A23041A24DB
:103A2000041A25041A26041A27041A28041A290439
:103A30001A31041AA304238E331A8F041A9C041A11
:103A40009D041A9E041AA1041AC4041ACE041AD1A1
:103A5000041AD2041AD504236CE71A8D041A8E04B2
:103A60001A8F041A90041A91041A92041A93041AD1
:103A700094041A95041A96041AC7041AC8041AE77B
:103A8000041AE8041AE9041AEA041AEB041AEC040A
:103A90001AED041AEE041AEF041AF0041AF1041ACB
:103AA000F2041AF3042315E81A16041A17041A1854
:103AB000041A19041A1A041A1B041A1C041A1D04E5
:103AC0001A1E041A1F041A20041A21041A22041AA6
:103AD00023041A24041A25041A26041A27041A286F
:103AE000041A29041A2A041A2B041A2C041A2D0465
:103AF0001A2E041A2F041A30041A31041A32041A26
:103B000033041A34041A35041A36041A37041A38DE
:103B1000041A39041A3A041A3B041A3C041A3D04E4
:103B20001A3E041A3F041A40041A41041A42041AA5
:103B300043041A44041A45041A46041A47041A484E
:103B4000041A49041A4A041A4B041A4C041A4D0464
:103B50001A4E041A4F041A50041A51041A52041A25
:103B600053041A54041A55041A56041A57041A58BE
:103B7000041A59041A5A041A5B041A5C041A5D04E4
:103B80001A5E041A5F041A60041A61041A62041AA5
:103B900063042A64E422F91A79041A95041AE704E2
:103BA0001AF104230CFA1A0D041A0E041A0F041A3F
:103BB00011041A13041A14041A18041A1F041A20E0
:103BC000041A21041A23041A24041A27041A2804A4
:103BD0001A29042330FE1A31041A33041A34041A41
:103BE00035041A36041A37041A38041A39041A3AF2
:103BF000041A3B041A3C041A3D041A3E041A3F04FA
:103C00001A40041A41041A42041A43041A44041ABA
:103C100049041A4A041A4B041A4C041A4D041A4E49
:103C2000041A4F041A50041A51041A52041A540464
:103C30001A55041A56041A57041A59041A5A041A1F
:103C40005B041A5C041A5D041A5E041A5F041A60AD
:103C5000041A61041A62041A63041A64041A6504DB
:103C60001A66041A68041A69041A6A041A6B04238F
:103C700001FF1A02041A03041A04041A05041A069E
:103C8000041A07041A08041A09041A0A041A0B046D
:103C90001A0C041A0D041A0E041A0F041A10041A2E
:103CA00011041A12041A13041A14041A15041A1609
:103CB000041A17041A18041A19041A1A041A1B04ED
:103CC0001A1C041A1D041A1E041A1F041A20041AAE
:103CD00021041A22041A23041A24041A25041A2679
:103CE000041A27041A28041A29041A2A041A2B046D
:103CF0001A2C041A2D041A2E041A2F041A30041A2E
:103D000031041A32041A33041A34041A35041A36E8
:103D1000041A37041A38041A39041A3A041A3B04EC
:103D20001A3C041A3D041A3E041A3F041A40041AAD
:103D300041041A42041A43041A44041A45041A4658
:103D4000041A47041A48041A49041A4A041A4B046C
:103D50001A4C041A4D041A4E041A4F041A50041A2D
:103D600051041A52041A53041A54041A55041A56C8
:103D7000041A57041A58041A59041A5A041A5B04EC
:103D80001A5C041A5D041A5E041AE0041AE1041AAB
:103D9000E2041AE3041AE4041AE504E12D01020323
:0C3DA000040420090607080902040608B4
:0400000508000131BD
:00000001FF
